:020000040800F2
:10000000484A0020DD010008C9090008AD030008C6
:100010000909000889020008B71200080000000062
:100020000000000000000000000000004501000882
:100030008D0200080000000089010008D90D0008A9
:10004000F7010008F7010008F7010008F7010008B0
:10005000F7010008F7010008F7010008F7010008A0
:10006000F7010008F7010008F7010008F701000890
:10007000F7010008F7010008F7010008F701000880
:10008000F7010008F7010008F7010008F701000870
:10009000F7010008F7010008F7010008F701000860
:1000A000F7010008F7010008F7010008F701000850
:1000B000F7010008F7010008F7010008F701000840
:1000C000F7010008F7010008F7010008F701000830
:1000D000F7010008A90E00084D0F00088D0F000859
:1000E000F7010008F7010008F7010008F701000810
:1000F000F7010008F7010008F7010008F701000800
:10010000F7010008F7010008F7010008F7010008EF
:10011000F7010008F7010008F7010008F7010008DF
:10012000F7010008F7010008F7010008F7010008CF
:10013000DFF80CD000F096F800480047991300084B
:10014000484A0020224B19680868B0E8F00F80F395
:100150000988BFF36F8F4FF0000080F311884EF0D5
:100160000D0E70470000000006480068006880F32C
:10017000088862B661B6BFF34F8FBFF36F8F00DFA1
:1001800000BF00BF08ED00E0EFF30980BFF36F8F01
:100190000F4B1A6820E9F00F106008B54FF0BF0050
:1001A00080F31188BFF34F8FBFF36F8F01F0DAFD3B
:1001B0004FF0000080F31188BDE808401968086816
:1001C000B0E8F00F80F30988BFF36F8F704700BF6E
:1001D00058000020EFF30580704700000648804774
:1001E00006480047FEE7FEE7FEE7FEE7FEE7FEE71C
:1001F000FEE7FEE7FEE7FEE7490E000831010008D2
:1002000040EA01039B0703D009E008C9121F08C098
:10021000042AFAD203E011F8013B00F8013B521E18
:10022000F9D27047D2B201E000F8012B491EFBD28F
:1002300070470022F6E710B513460A4604461946F1
:10024000FFF7F0FF204610BD10B5002200E0521C61
:10025000835C8C5CA34201D1002BF8D1D8B2E1B20F
:10026000401A10BD064C074D06E0E06840F001035F
:1002700094E8070098471034AC42F6D3FFF75CFFD0
:100280003C2500085C25000800BFFEE770472DE90B
:10029000F04102460025002600200023002400270C
:1002A00091F803C00CF00F0591F803C00CF0100C8E
:1002B000BCF1000F03D091F802C04CEA050591F89B
:1002C00000C0BCF1000F31D0146800202BE04FF0CB
:1002D000010C0CFA00F3B1F800C00CEA03069E42D0
:1002E00020D183004FF00F0C0CFA03F7BC4305FA42
:1002F00003FC4CEA040491F803C0BCF1280F06D1BA
:100300004FF0010C0CFA00FCC2F814C00AE091F89E
:1003100003C0BCF1480F05D14FF0010C0CFA00FCF2
:10032000C2F810C0401C0828D1D31460B1F800C036
:10033000BCF1FF0F34DD546800202EE000F1080C02
:100340004FF0010808FA0CF3B1F800C00CEA0306FC
:100350009E4221D183004FF00F0C0CFA03F7BC43EF
:1003600005FA03FC4CEA040491F803C0BCF1280F21
:1003700005D100F1080C08FA0CF8C2F8148091F8C5
:1003800003C0BCF1480F07D100F1080C4FF0010881
:1003900008FA0CF8C2F81080401C0828CED354602C
:1003A000BDE8F081416170470161704700BFFEE721
:1003B00010B5482000F02AFD4FF4165000F050FA16
:1003C0004FF4165000F07AFF4FF4E13000F06AF875
:1003D0004FF4165000F006F800F098FA00F0C0F85C
:1003E00010BD000010B586B004460121042000F0C5
:1003F0004FFB0121880300F04BFB18208DF81700FC
:100400004FF40070ADF8140003208DF8160005A914
:100410001F48FFF73CFF48208DF817004FF480601D
:10042000ADF8140003208DF8160005A91848FFF751
:100430002EFF01940020ADF810000C20ADF80E0046
:100440000020ADF80C00ADF80A00ADF8080001A9D5
:10045000104800F0BBFE012240F225510D4800F08B
:1004600090FE4FF4A06000F0E9FA25208DF800001E
:1004700001208DF803008DF801008DF80200684618
:1004800000F0A4FA0121034800F0EAFD06B010BD17
:10049000000801400038014002E0642001F07EFBCA
:1004A000FBE7000010B586B004460121480400F0C7
:1004B000CFFA0121042000F0EBFA18208DF8170084
:1004C0000420ADF8140003208DF8160005A91F487C
:1004D000FFF7DDFE48208DF817000820ADF8140066
:1004E00003208DF8160005A91848FFF7D0FE0194E7
:1004F0000020ADF810000C20ADF80E000020ADF883
:100500000C00ADF80A00ADF8080001A9104800F091
:100510005DFE012240F225510D4800F032FE4FF4FD
:10052000A06000F08BFA26208DF8000001208DF8E5
:1005300003008DF801008DF80200684600F046FACD
:100540000121034800F08CFD06B010BD00080140F9
:100550000044004002E0642001F020FBFBE70000C3
:1005600008B50121102000F093FA4FF40050ADF8C7
:10057000000010208DF8030003208DF8020069466A
:100580000348FFF784FE01200249086008BD00000F
:1005900000100140B401224210B504464021074832
:1005A00000F046FD2146054800F081FE00BF4021D5
:1005B000024800F0AFFD0028F9D010BD003801401E
:1005C00010B50948007870B9AA20FFF7E5FF0220AE
:1005D000FFF7E2FF0020FFF7DFFFAC20FFF7DCFFB3
:1005E00001200149087010BD4E00002010B5AA205E
:1005F000FFF7D2FF0520FFF7CFFF0020FFF7CCFF6A
:10060000AF20FFF7C9FF10BD10B5AA20FFF7C4FF48
:100610000620FFF7C1FF0020FFF7BEFFB020FFF765
:10062000BBFF10BD2DE9F04104460D460026002712
:1006300004F13100C6B205F12800C7B2AA20FFF7C5
:10064000ABFF1B20FFF7A8FF0220FFF7A5FF30201C
:10065000FFF7A2FF3046FFF79FFF3846FFF79CFFEA
:10066000BDE8F08110B50948007870B1AA20FFF705
:1006700093FF0320FFF790FF0020FFF78DFFAD20D1
:10068000FFF78AFF00200149087010BD4E000020CE
:10069000BFE000225F496048006801F06FFC5F49DD
:1006A000086008460068012825D15DA15948FFF778
:1006B000CBFD38B900210846FFF7B4FF01205949A6
:1006C000087018E058A15348FFF7BEFD38B9012162
:1006D0000846FFF7A7FF0120524908700BE053A11D
:1006E0004C48FFF7B1FD30B902210846FFF79AFFE9
:1006F00001204C49087000224D494E48006801F025
:100700003DFC4D4908600846006801283ED10020A4
:100710004A49086042A14648FFF796FD38B90021D2
:100720000846FFF77FFF01203E4908702EE03EA1FA
:100730003F48FFF789FD38B901210846FFF772FFEE
:1007400001203849087021E038A13948FFF77CFDC5
:1007500038B902210846FFF765FF012031490870CA
:1007600014E037A13248FFF76FFD28B9FFF77AFF91
:1007700000202C49087009E033A12D48FFF764FDE3
:1007800020B9FFF71DFF01202649087000223149DA
:100790003148006801F0F2FB304908600846006803
:1007A000012836D12B48007838B900210846FFF7D8
:1007B00039FF01201B4908702BE0264800781128DA
:1007C00007D101210846FFF72DFF012015490870C8
:1007D0001FE020480078AD280ED11248007828B1DB
:1007E000FFF740FF00200F49087012E0FFF7E8FE16
:1007F00001200C4908700CE016480078AF2802D19F
:10080000FFF7F4FE05E013480078B02801D1FFF7A8
:10081000FBFE3EE7B80000202C0000203C0000203A
:100820005A4A4C004E0000204A570000465A5500D4
:100830001C0100203400002044000020B4012242AA
:100840005041555345000000434F4E54494E5545C5
:100850000000000051000020380000204800002067
:1008600010B586B004460121880300F011F901217A
:10087000042000F00DF90121102000F009F94FF4D7
:100880000070ADF8140003208DF8160018208DF8C4
:10089000170005A91948FFF7FAFC4FF48060ADF87E
:1008A000140004208DF8170005A91448FFF7EFFC89
:1008B0004FF48040ADF8140003208DF81600282076
:1008C0008DF8170005A90E48FFF7E1FC0194002000
:1008D000ADF80800ADF80A00ADF80C00ADF8100056
:1008E0000C20ADF80E0001A9064800F06FFC0121B4
:1008F000044800F0B5FB06B010BD00000008014040
:10090000001001400038014000BFFEE708B501219A
:10091000042000F0BDF810208DF80300F020ADF8A1
:10092000000003208DF8020069460248FFF7AFFC83
:1009300008BD00000008014010B5F0210148FFF794
:1009400031FD10BD0008014008E00548007818B1ED
:10095000052000F007F801E0FFF7EEFFF5E70000E3
:100960004E00002010B5044630211648FFF71CFD4C
:10097000C0211448FFF716FD204601F00FF9602151
:100980001048FFF711FD90210E48FFF70BFD2046A0
:1009900001F004F9C0210B48FFF706FD302109489A
:1009A000FFF700FD204601F0F9F890210548FFF718
:1009B000FBFC60210348FFF7F5FC204601F0EEF850
:1009C00010BD0000000801407047000070B5002114
:1009D00000230F22C47804B3154C246804F4E064A7
:1009E000C4F5E064210AC1F10403CA40447804FA62
:1009F00003F184781440214309010E4C0678A15577
:100A0000047804F01F050124AC4005786D11AD0099
:100A100005F1E025C5F8004109E0047804F01F0560
:100A20000124AC40044D0678761145F8264070BD8F
:100A30000CED00E000E400E080E100E00249014349
:100A4000024A1160704700000000FA050CED00E05A
:100A500029B1064AD2690243044BDA6104E0034A31
:100A6000D2698243014BDA617047000000100240F6
:100A700029B1064A12690243044B1A6104E0034A91
:100A800012698243014B1A61704700000010024056
:100A900029B1064A92690243044B9A6104E0034A71
:100AA00092698243014B9A61704700000010024036
:100AB00029B1064AD2680243044BDA6004E0034AD3
:100AC000D2688243014BDA60704700000010024098
:100AD00030B500210022002400232D4D6D6805F063
:100AE0000C0121B1042905D0082923D105E0294DA5
:100AF000056022E0274D05601FE0254D6D6805F477
:100B00007012234D6D6805F48034022505EB924286
:100B10001CB9214D554305600BE01D4D6D6805F472
:100B200000351DB11C4D5543056002E0194D55437C
:100B3000056002E0174D056000BF00BF144D6D68F1
:100B400005F0F0010909154D6B5C0568DD40456055
:100B50000F4D6D6805F4E061090A104D6B5C456846
:100B6000DD4085600A4D6D6805F46051C90A0B4D82
:100B70006B5C4568DD40C560054D6D6805F440411E
:100B8000890B074D6B5CC568B5FBF3F5056130BD9E
:100B90000010024000127A0000093D000000002011
:100BA0001000002010B500F001F810BD0CB50020B9
:100BB000019000903348006840F48030314908606B
:100BC00000BF3048006800F4003000900198401CDD
:100BD0000190009818B90198B0F5A06FF1D129489B
:100BE000006800F4003010B10120009001E0002006
:100BF00000900098012843D12348006840F010007D
:100C0000214908600846006820F003000860084693
:100C1000006840F0020008601A48406819494860BE
:100C20000846406848600846406840F48060486074
:100C30000846406820F47C1048600846406840F44C
:100C4000E81048600846006840F08070086000BF07
:100C50000C48006800F000700028F9D0094840688E
:100C600020F00300074948600846406840F0020051
:100C7000486000BF0348406800F00C000828F9D124
:100C80000CBD000000100240002002401CB500F026
:100C900031FF002264210A2001F0AEF827490860E4
:100CA000002201210A2001F0A7F82549086000224E
:100CB00064210A2001F0A0F82249086000220121E5
:100CC0000A2001F099F820490860204803210023F8
:100CD0008022CDE900101EA1204801F001FA204831
:100CE000032100238022CDE900101EA1204801F03D
:100CF000F7F9204802210023CA01CDE900101EA106
:100D0000204801F0EDF9204802210023CA01CDE975
:100D100000101EA1204801F0E3F920480321002320
:100D20008022CDE900101EA1204801F0D9F9002051
:100D300000F04EFF00F0F0FE1CBD00002C00002073
:100D4000300000203400002038000020180000206F
:100D50004B3231305F5461736B000000990400081E
:100D600024000020597559696E5F5461736B00004F
:100D7000711300081C0000204D50335F5461736BE9
:100D80000000000091060008200000204D6F746FE5
:100D9000725F5461736B000049090008280000204D
:100DA0004C43445F5461736B00000000550500081C
:100DB000042808D14FF0E021096941F004014FF007
:100DC000E022116107E04FF0E021096921F0040100
:100DD0004FF0E0221161704710B500BFBF2080F3D3
:100DE0001188BFF34F8FBFF36F8F00BF01F0ACF9D5
:100DF00018B14FF080500449086000BF002080F314
:100E0000118800BF10BD000004ED00E010B50446DD
:100E10006FF00400FFF7CCFFE11704EB5171C1F351
:100E2000C701074A11701046007800EB4001C1EB82
:100E3000C0104FF6FF7101EAC0000249088010BDE2
:100E4000520000205400002010B51348006840F004
:100E500001001149086008464068104908400E49E1
:100E60004860084600680E4908400B49086008467B
:100E7000006820F4802008600846406820F4FE00E6
:100E800048604FF41F008860FFF78CFE4FF0006051
:100E90000449086010BD0000001002400000FFF887
:100EA000FFFFF6FE08ED00E010B540F225512248A4
:100EB00000F03DF9012836D11F4800F0F3F9C4B223
:100EC0001E48007840B9402C27D101201B490870EA
:100ED00000201B49087020E01848007801280FD135
:100EE0000D2C03D102201549087016E0154814494D
:100EF0000978445412480078401C114908700CE0ED
:100F00000E480078022808D10A2C06D100200B498F
:100F100008700C490A4A1278885440F22551064854
:100F200000F08FF800BF0123002206490648006840
:100F300000F0D8FF10BD0000003801404D00002037
:100F40004C000020B80000202C00002010B540F21A
:100F500025510B4800F0EBF8012809D1084800F0B2
:100F6000A1F90849087040F22551054800F069F8D8
:100F70000123002203490448006800F0B3FF10BDBC
:100F800000440040510000203800002010B540F21D
:100F90002551224800F0CBF8002836D01F4800F039
:100FA00081F9C4B21E48007840B9402C27D10120F5
:100FB0001B49087000201B49087020E01848007881
:100FC00001280FD10D2C03D102201549087016E01D
:100FD000154814490978445412480078401C1149B6
:100FE00008700CE00E480078022808D10A2C06D1BF
:100FF00000200B4908700C490A4A1278885440F2C4
:101000002551064800F01DF800BF012300220649C3
:101010000648006800F066FF10BD00000048004070
:10102000500000204F0000201C0100203400002050
:1010300001F40072B2F5007F00D100BFCA43028004
:10104000704710B50022002340F66A14A14200D177
:1010500000BF0A1201249440A3B2DC43048010BDF7
:1010600021B1828942F40052828104E082894DF6E6
:10107000FF731A408281704710B5044620488442AD
:1010800009D101218803FFF713FD00214FF48040AF
:10109000FFF70EFD32E01B48844209D101214804CC
:1010A000FFF7E6FC00214FF40030FFF7E1FC25E0FC
:1010B0001548844209D101218804FFF7D9FC002199
:1010C0004FF48020FFF7D4FC18E01048844209D187
:1010D0000121C804FFF7CCFC00214FF40020FFF7EA
:1010E000C7FC0BE00A48844208D101210805FFF73C
:1010F000BFFC00214FF48010FFF7BAFC10BD0000C8
:10110000003801400044004000480040004C0040CE
:101110000050004002460020B1F5007F00D100BF22
:1011200013880B400BB1012000E00020704770B520
:101130000246002400230025002040F66A16B14232
:1011400000D100BFC1F3421501F01F03012606FACA
:1011500003F3012D02D19689334006E0022D02D11E
:10116000168A334001E0968A33400C12012606FAB3
:1011700004F41688344013B10CB1012000E00020C3
:1011800070BDF0B50346002400260025002040F67F
:101190006A17B94200D100BF1846C1F3421401F0EA
:1011A0001F06012707FA06F5012C01D10C3004E0D7
:1011B000022C01D1103000E014301AB107682F431F
:1011C000076002E00768AF430760F0BD2DE9F04714
:1011D00086B005460E460024A24600BFA146002761
:1011E000B08900B100BF2F462C8A4CF6FF70044036
:1011F000F08804432C82AC894EF6F3100440B0888A
:1012000031890843718908430443AC81AC8A4FF6A5
:10121000FF400440B0890443AC8201A8FFF758FCAA
:101220001F48874202D1DDF810A001E0DDF80CA0D4
:10123000A88900F4004040B10AEBCA0000EB0A1094
:1012400031684900B0FBF1F807E00AEBCA0000EB97
:101250000A1031688900B0FBF1F86420B8FBF0F0A7
:1012600004012009642101FB1089A88900F40040D1
:1012700040B1322000EBC900B0FBF1F000F00700F4
:10128000044308E0322000EB09106421B0FBF1F0C8
:1012900000F00F0004432C8106B0BDE8F087000089
:1012A0000038014001468888C0F308007047C1F348
:1012B00008028280704700BFFEE7000010B586B0CC
:1012C000044601218804FFF7C3FB01210820FFF732
:1012D000DFFB2548FFF7D0FE4FF48060ADF8140027
:1012E00003208DF8160018208DF8170005A91F4857
:1012F000FEF7CDFF4FF40060ADF8140003208DF829
:10130000160048208DF8170005A91848FEF7BFFF02
:1013100001940020ADF80800ADF80A00ADF80C000B
:10132000ADF810000C20ADF80E0001A90E48FFF733
:101330004DFF012240F225510B48FFF722FF2720E5
:101340008DF8000002208DF8010000208DF80200C9
:1013500001208DF803006846FFF738FB01210248A1
:10136000FFF77EFE06B010BD00480040000C0140B3
:1013700002E0642000F012FCFBE702E008C8121F44
:1013800008C1002AFAD170477047002001E001C16E
:10139000121F002AFBD170471CB5FFF709F8074858
:1013A000012100230A02CDE9001005A1074800F041
:1013B00097FE00F099FC00201CBD000014000020E6
:1013C00053746172745F5461736B00008D0C00087C
:1013D0002DE9F04105460E46264807682648006874
:1013E000001D00F037FB50B92348006890F82C101E
:1013F0000120884021490968814320480160681C18
:10140000D8B9D6B11E4948681B49096888601A498D
:1014100082680968CA6018490968091D82685160B4
:1014200015490968091D8160154A134909684A610F
:1014300011460968491C11601AE07C190E480068C1
:101440004460BC4207D20C480168091D0D48006881
:1014500000F02AFB0CE008480168091D0A480068F2
:1014600000F022FB09480068844201D2074804606A
:10147000BDE8F0816C0000205800002070000020C2
:1014800034020020600000205C0000208800002062
:1014900010B5044600F02EFB2F480068401C2E4972
:1014A00008602E48006840B92C480460084600686F
:1014B00001280DD100F072F90AE02948006838B916
:1014C00026480068C06AE16A884201D8234804605F
:1014D00024480068401C2349086094F82C1001201F
:1014E00088402149096808431F490860E16A01EB07
:1014F00081011E4A02EB81014868A0608268E260B7
:10150000211D826851608160E16A01EB8101174A07
:1015100002EB81026261E16A01EB8101134A52F838
:101520002110491CE26A02EB8202104B43F82210A0
:1015300000F0F2FA0A48006868B108480068C06A1A
:10154000E16A884207D24FF0805009490860BFF332
:101550004F8FBFF36F8F10BD680000205800002030
:101560007400002084000020700000208001002012
:1015700004ED00E010B516E000F0BCFA0C48C068BD
:10158000C468201D00F066FA0A480068401E094938
:10159000086009480068401E0749086000F0BCFA6E
:1015A000204600F055F8044800680028E4D110BD3A
:1015B00020020020680000206400002070B504466E
:1015C0000D46206C70B1216CE0680144E160D4E903
:1015D0000210884201D32168E1602846226CE1684C
:1015E000FEF70EFE70BD2DE9F04104460F4615468C
:1015F0004FF00008A66B206C28B37DB93946226CE9
:101600006068FEF7FDFD216C606808446060D4E905
:101610000101884217D32068606014E03946226CCB
:10162000E068FEF7EDFD216CE068411AE160216899
:10163000E068884203D2216CA068411AE160022D63
:1016400001D106B1761E701CA0634046BDE8F08152
:1016500010B50446206B00F06FFA204600F06CFADB
:1016600010BD000030B54FF48843154800F0070462
:101670002CB1C01D20F00700114C041B1B1B02469F
:10168000104C226000240F4D6C60D018083820F0F8
:1016900007000D4C206000240B4D2D686C600A4D36
:1016A0002D682C601146441A4C60074C24680C606D
:1016B000064D4C682C60064D4C682C6030BD000017
:1016C0004802002098000020A0000020A800002070
:1016D000A400002000BFFFF74DFF06480068012866
:1016E000F9D94FF0805004490860BFF34F8FBFF322
:1016F0006F8FF0E78001002004ED00E02DE9F0415C
:1017000006460D4617469846069C0DB9246000E033
:101710002760E66325640121204600F093FBBDE8C5
:10172000F0812DE9FF5F80460E469146DDE90E7A95
:10173000109CA9F10100216B01EB800B2BF0070B32
:101740007EB1002507E0715D04F134004155705D04
:1017500000B902E06D1C102DF5D300BF002143201D
:101760000155052F00D30427E762201D00F099F9E9
:1017700004F1180000F095F92461C7F10500A0619B
:10178000646241465846039A00F052F92060BAF16B
:10179000000F01D0CAF80040BDE8FF9F10B500243B
:1017A00007E004EB84010F4A02EB810000F06CF9C2
:1017B000641C052CF5D30C4800F066F90B4800F0CA
:1017C00063F90B4800F060F90A4800F05DF90A4837
:1017D00000F05AF9044809490860044808490860BB
:1017E00010BD000080010020E4010020F80100206D
:1017F0000C02002020020020340200205C000020A7
:101800006000002010B50146164800E0006803683B
:101810008B42FBD30246436813448B4204D1436896
:101820004C682344436001460A464B6813440468ED
:10183000A34211D10C4C03682468A34208D04B6822
:101840000468646823444B6003681B680B6005E010
:10185000054B1B680B6001E003680B60884200D0F9
:10186000016010BD98000020A000002070B5054662
:1018700000F040F9A86B08B9012400E0002400F052
:101880004BF9204670BD000009480068006808B99F
:10189000012000E0002020B14FF0FF300549086032
:1018A00005E003480068C0680068024908607047A6
:1018B0005C0000208800002000BFBF2080F311885A
:1018C000BFF34F8FBFF36F8F00BF00BFFEE770B550
:1018D000044600F00FF994F9455010E0606A08B929
:1018E000012000E0002038B904F1240000F0F4FCED
:1018F00018B100F0E3F900E003E0681E45B2002DE6
:10190000ECDC00BFFF2084F8450000F005F900F092
:10191000F1F894F9445010E0206908B9012000E082
:10192000002048B904F1100000F0D6FC08B100F026
:10193000C5F9681E45B200E001E0002DECDC00BFF7
:10194000FF2084F8440000F0E7F870BD2DE9F0476F
:1019500005464FF0000900F0FDF93048006808B96D
:10196000FFF780FE75B105F00700C0F11008C8F15F
:10197000FF30A84201D2012000E0002008B9454410
:1019800000E00025012000EBE570002841D0002D8B
:101990003FD02348006885423BD8224E3046046839
:1019A00001E0264624686068A84202D22068002828
:1019B000F7D11A48006884422BD0306800F108093A
:1019C000206830606068401B102807D9671960687C
:1019D000401B786065603846FFF714FF1049606867
:1019E0000968081A0E490860084600680E49096827
:1019F000884203D20A4800680B490860606840F0DA
:101A0000004060600020206008480068401C0749D2
:101A1000086000F0E5FC4846BDE8F087A000002023
:101A2000A400002098000020A8000020AC000020A6
:101A3000001F4FF080730360001F21F0010303605B
:101A4000001F034B03601438026020387047000009
:101A5000B918000801460A69D1E901309860D1E956
:101A6000010358605068884201D1886850600020A6
:101A700008611068401E10601068704701480068D7
:101A8000704700006800002000F1080141604FF03D
:101A9000FF31816000F10801C16001610021016036
:101AA000704700210161704710B502460B685C1C4D
:101AB0000CB9106907E002F1080000E040684468D2
:101AC00024689C42FAD944684C604C68A1608860E4
:101AD00041600A611468641C146010BD42684A6069
:101AE00093688B60936859609160086103685B1C20
:101AF0000360704700BFBF2080F31188BFF34F8F92
:101B0000BFF36F8F00BF03480068401C01490860A5
:101B100070470000B400002006480068401E0549D8
:101B200008600846006820B9002080F3118800BFD3
:101B300000BF7047B400002070B506463546E6B1D8
:101B4000083D2C466068C00FB8B12068A8B960682D
:101B500020F00040606000F0FDF808496068096806
:101B60000844064908602046FFF74CFE0448006818
:101B7000401C0349086000F033FC70BDA400002045
:101B8000B000002000204FF0E02108618861024889
:101B900048610720086170473F19010070B504468D
:101BA000002544B100F0D6F800212046FFF710FCD4
:101BB00000F016FC05463DB94FF08050034908601F
:101BC000BFF34F8FBFF36F8F70BD000004ED00E0D7
:101BD00070B50546FFF78EFF15B92948006800E08B
:101BE00028460446201DFFF735FF78B9E06A00EB70
:101BF0008000244951F8200040B994F82C100120AD
:101C000088402149096881431F480160A06A18B1D2
:101C100004F11800FFF71EFF1C480068401C1B4918
:101C2000086017480068844209D1211D1848FFF751
:101C300055FF18480068401C1649086006E0164821
:101C40000068401E14490860FFF71EFEFFF764FF9E
:101C50000B480068844202D02046FFF7F9FC0F4889
:101C6000006858B106480068844207D14FF08050A0
:101C70000B490860BFF34F8FBFF36F8F70BD00003B
:101C80005800002080010020700000208400002007
:101C90002002002064000020680000207400002062
:101CA00004ED00E0034909680160034909684160E7
:101CB00070470000800000206C00002001200149D6
:101CC000086070477C00002070B505460C4605484A
:101CD000016818312846FFF7E7FE01212046FFF78B
:101CE00077FB70BD580000201CB5124800210B4640
:101CF0008022CDE9001010A1114800F0F1F904464E
:101D0000012C14D100BFBF2080F31188BFF34F8F87
:101D1000BFF36F8F00BF4FF0FF300A49086001200A
:101D20000949086000200949086000F04BF808489C
:101D300000681CBD8C00002049444C450000000098
:101D4000D516000888000020740000206C000020D8
:101D50009000002002480068401C0149086070475C
:101D6000940000201248006818B101201149086051
:101D70001DE000200F4908600F480068B0FA80F0AD
:101D8000C0F11F0101EB81020C4B03EB82004268A2
:101D90005268426000F108024368934202D14268EF
:101DA000526842604268D268054B1A6000BF7047B3
:101DB000940000207C0000207000002080010020A2
:101DC0005800002010B50A48006840F47F00084918
:101DD00008600846006840F07F400860FFF7D2FEC8
:101DE000002004490860FEF7BFF9002010BD000084
:101DF00020ED00E0B40000202DE9F84304460E4633
:101E000017460025DCB1681EB0FBF4F0B04216D3D3
:101E100004FB06F010F1490F11D804FB06F909F193
:101E20004800FFF793FD05464DB1A84608F1480864
:101E30003B464246314620460095FFF75FFC284668
:101E4000BDE8F8832DE9F04105460E4601272C46F2
:101E5000002C41D0E06B00283ED0B91EE06BB1FBF6
:101E6000F0F0216C884237D3FFF744FED4E90F121B
:101E7000206801FB0200A0600020A0632068606071
:101E8000E06B401E226C216800FB0211E160FF2024
:101E900084F8440084F845009EB9206908B90120FF
:101EA00000E00020A8B904F1100000F015FA80B19C
:101EB0004FF080500A490860BFF34F8FBFF36F8F18
:101EC00007E004F11000FFF7DFFD04F12400FFF745
:101ED000DBFDFFF721FE00E000273846BDE8F0817A
:101EE00004ED00E02DE9FF4F81B0054616461F4680
:101EF0002C4600BFBF21EFF3118081F31188BFF39F
:101F00004F8FBFF36F8F00BF8146A06BE16B88429C
:101F100001D3022F28D194F945A0A06B00903A4636
:101F200020460299FFF75FFB0AF1010070B9606A71
:101F300008B9012000E0002038B904F1240000F0C5
:101F4000CBF910B10EB1012030600AE0FFF796FD29
:101F50008346DA4504D20AF1010040B284F8450014
:101F600000BF4FF0010801E04FF0000800BF89F307
:101F7000118800BF404605B0BDE8F08F2DE9F7415C
:101F800083B005460F464FF000082C4600BFFFF710
:101F9000B1FDA66BF6B139462046FFF70FFB701E68
:101FA000A063206908B9012000E0002060B904F1B5
:101FB000100000F091F938B14FF080502F490860BF
:101FC000BFF34F8FBFF36F8FFFF7A6FD012006B061
:101FD000BDE8F081059818B9FFF79EFD0020F6E7EF
:101FE000B8F1000F04D101A8FFF75CFE4FF0010823
:101FF000FFF792FDFFF7AEFEFFF77CFD94F944007A
:10200000401C10B9002084F8440094F94500401C9D
:1020100010B9002084F84500FFF77EFD05A901A84E
:1020200000F02EF8F0B92046FFF720FCA0B104F133
:1020300024000599FFF748FE2046FFF748FC00F012
:10204000CFF90028A3D14FF080500C490860BFF3AE
:102050004F8FBFF36F8F9AE72046FFF738FC00F0F1
:10206000BFF994E72046FFF732FC00F0B9F92046AB
:10207000FFF7FCFB00288AD00020A8E704ED00E071
:1020800070B506460C46FFF735FD134802687068C8
:10209000131A2068401C08B9002519E00F49306860
:1020A0000968884206D07068904203D80125002054
:1020B00020600DE02068984207D92068C01A20608F
:1020C0003046FFF7EFFD002502E0002020600125EB
:1020D000FFF722FD284670BD6C0000208000002024
:1020E0002DE9FF4F85B0804689461746DDE912ABE2
:1020F000B800FFF72BFC064676B14C20FFF726FC14
:1021000004462CB14C212046FEF793F8266304E0E8
:102110003046FFF711FD00E000247CB10020CDE93E
:1021200000ABCDE902403A4649464046089BFFF7DE
:10213000F8FA2046FFF7ACF9012501E04FF0FF3532
:10214000284609B0BDE8F08F2DE9F0410027574837
:10215000006800287ED156480068451C5448056038
:102160008DB95448D0F80080534800685149086040
:102170005148C0F8008051480068401C4F49086031
:10218000FFF782FB00BF4E480068854276D300BF50
:1021900048480068006808B9012000E0002020B12C
:1021A0004FF0FF304649086067E042480068C06869
:1021B000C4686668B54202D2414806605DE0606965
:1021C000D4E902128A60D4E902214A60211D4268E2
:1021D0008A4201D1E1684160002262610168491EC2
:1021E0000160A06A98B1A06AD4E907128A60D4E9B4
:1021F00007214A6004F1180142688A4201D1216A2C
:1022000041600022A2620168491E016000BF94F88B
:102210002C10012088402B4909680843294908608F
:10222000E16A01EB8101284A02EB81014868A06064
:102230008268E260211D826851608160E16A01EB81
:102240008101214A02EB81026261E16A01EB8101B5
:102250001D4A00E022E052F82110491CE26A02EB1C
:102260008202194B43F822101849E06A0968C96ACA
:1022700088428DD901278BE700E000BF1348006832
:10228000C06A00EB8000104951F82000012800D9F5
:1022900001270F48006800B1012704E00D480068DD
:1022A000401C0C4908603846BDE8F08194000020CD
:1022B0006C0000205C0000206000002080000020F6
:1022C00088000020700000208001002058000020BD
:1022D0007C0000207800002070B50346D868C168F3
:1022E000886AD1E90745A560D1E90754656001F125
:1022F00018044568A54201D10C6A446000258D622E
:102300000468641E04603048006800283DD14869B4
:10231000D1E90245A560D1E9025465600C1D45680C
:10232000A54201D1CC68446000254D610468641E5B
:10233000046091F82C400120A040244C24682043E4
:10234000224C2060CC6A04EB8404214D05EB84040C
:10235000606888608568CD600C1D85686C608460ED
:10236000CC6A04EB84041A4D05EB84054D61CC6AFC
:1023700004EB8404164D55F82440641CCD6A05EB2B
:102380008505134E46F8254010E0124C6068C86180
:1023900085680D6201F1180485686C6084600D4DDC
:1023A0008D622C462468641C2C6000BF0A4CC86AED
:1023B0002468E46AA04204D901220120074C20606D
:1023C00000E00022104670BD940000207000002044
:1023D000800100200C020020580000207C0000201A
:1023E00070B500240026FFF785FB4B480068401EAF
:1023F000494908600846006800287DD147480068C0
:10240000002879D05BE04648C068C468A06AD4E977
:1024100007128A60D4E907214A6004F11801426872
:102420008A4201D1216A41600022A2620168491EEC
:1024300001606069D4E902128A60D4E902214A602D
:10244000211D42688A4201D1E16841600022626137
:102450000168491E016094F82C1001208840314920
:10246000096808432F490860E16A01EB81012E4A9F
:1024700002EB81014868A0608268E260211D8268E9
:1024800051608160E16A01EB8101274A02EB810220
:102490006261E16A01EB8101234A52F82110491C73
:1024A000E26A02EB8202204B43F822101F49E06AE5
:1024B0000968C96A884202D301201D49086018488A
:1024C000006808B9012000E0002000289BD00CB172
:1024D000FFF7DAF91748056865B100BFFFF734FE6A
:1024E00010B10120124908606D1E002DF6D10020A8
:1024F000104908600E4800E009E0006838B1012684
:1025000030070D490860BFF34F8FBFF36F8FFFF7A0
:1025100003FB304670BD00009400002068000020DE
:102520000C020020700000208001002058000020D4
:102530007C0000207800002004ED00E05C2500080D
:1025400000000020B80000007A13000814260008DC
:10255000B8000020904900008A1300080000000025
:102560000102030401020304060708090204060825
:10257000000000000000000000000000000000005B
:10258000000000000000000000000000000000004B
:10259000000000000000000000000000000000003B
:1025A000000000000000000000000000000000002B
:1025B000000000000000000000000000000000001B
:1025C000000000000000000000000000000000000B
:1025D00000000000000000000000000000000000FB
:1025E00000000000000000000000000004000000E7
:1025F00000000000000000000000000000000000DB
:1026000000000000000000000000000000000000CA
:04261000AAAAAAAA1E
:0400000508000131BD
:00000001FF
